:020000040000fa
:080000000001040000000000f3
:020000040000fa
:0400080018020000da
:020000040000fa
:04000c0018020000d6
:020000040000fa
:0400100018020000d2
:020000040000fa
:0400140018020000ce
:020000040000fa
:0400180018020000ca
:020000040000fa
:04001c0018020000c6
:020000040000fa
:0400200018020000c2
:020000040000fa
:0400240018020000be
:020000040000fa
:0400280018020000ba
:020000040000fa
:04002c0018020000b6
:020000040000fa
:0400300018020000b2
:020000040000fa
:04003400c8010000ff
:020000040000fa
:0400380018020000aa
:020000040000fa
:04003c0018020000a6
:020000040000fa
:0400400018020000a2
:020000040000fa
:04004400180200009e
:020000040000fa
:04004800180200009a
:020000040000fa
:04004c001802000096
:020000040000fa
:040050001802000092
:020000040000fa
:04005400180200008e
:020000040000fa
:04005800180200008a
:020000040000fa
:04005c001802000086
:020000040000fa
:040060001802000082
:020000040000fa
:04006400180200007e
:020000040000fa
:04006800180200007a
:020000040000fa
:04006c001802000076
:020000040000fa
:040070001802000072
:020000040000fa
:04007400180200006e
:020000040000fa
:04007800180200006a
:020000040000fa
:04007c001802000066
:020000040000fa
:040080001802000062
:020000040000fa
:04008400180200005e
:020000040000fa
:04008800f40100007f
:020000040000fa
:04008c001802000056
:020000040000fa
:040090001802000052
:020000040000fa
:04009400180200004e
:020000040000fa
:04009800180200004a
:020000040000fa
:04009c001802000046
:020000040000fa
:0400a0001802000042
:020000040000fa
:0400a400180200003e
:020000040000fa
:0400a800180200003a
:020000040000fa
:0400ac001802000036
:020000040000fa
:0400b0001802000032
:020000040000fa
:0400b400180200002e
:020000040000fa
:0400b800180200002a
:020000040000fa
:0400bc001802000026
:020000040000fa
:0400c0001802000022
:020000040000fa
:0400c400180200001e
:020000040000fa
:0400c800180200001a
:020000040000fa
:0400cc001802000016
:020000040000fa
:0400d0001802000012
:020000040000fa
:0400d400180200000e
:020000040000fa
:0400d800180200000a
:020000040000fa
:0401080018020000d9
:020000040000fa
:04010c0018020000d5
:020000040000fa
:0401100018020000d1
:020000040000fa
:0401140018020000cd
:020000040000fa
:0401180018020000c9
:020000040000fa
:04011c0018020000c5
:020000040000fa
:0401200018020000c1
:020000040000fa
:0401240018020000bd
:020000040000fa
:0401280018020000b9
:020000040000fa
:04012c0018020000b5
:020000040000fa
:0401300018020000b1
:020000040000fa
:04013400c8010000fe
:020000040000fa
:0401380018020000a9
:020000040000fa
:04013c0018020000a5
:020000040000fa
:0401400018020000a1
:020000040000fa
:04014400180200009d
:020000040000fa
:040148001802000099
:020000040000fa
:04014c001802000095
:020000040000fa
:040150001802000091
:020000040000fa
:04015400180200008d
:020000040000fa
:040158001802000089
:020000040000fa
:04015c001802000085
:020000040000fa
:040160001802000081
:020000040000fa
:04016400180200007d
:020000040000fa
:040168001802000079
:020000040000fa
:04016c001802000075
:020000040000fa
:040170001802000071
:020000040000fa
:04017400180200006d
:020000040000fa
:040178001802000069
:020000040000fa
:04017c001802000065
:020000040000fa
:040180001802000061
:020000040000fa
:04018400180200005d
:020000040000fa
:04018800f40100007e
:020000040000fa
:04018c001802000055
:020000040000fa
:040190001802000051
:020000040000fa
:04019400180200004d
:020000040000fa
:040198001802000049
:020000040000fa
:04019c001802000045
:020000040000fa
:0401a0001802000041
:020000040000fa
:0401a400180200003d
:020000040000fa
:0401a8001802000039
:020000040000fa
:0401ac001802000035
:020000040000fa
:0401b0001802000031
:020000040000fa
:0401b400180200002d
:020000040000fa
:0401b8001802000029
:020000040000fa
:0401bc001802000025
:020000040000fa
:0401c0001802000021
:020000040000fa
:0401c400180200001d
:020000040000fa
:0401c8001802000019
:020000040000fa
:0401cc001802000015
:020000040000fa
:0401d0001802000011
:020000040000fa
:0401d400180200000d
:020000040000fa
:0401d8001802000009
:020000040000fa
:100200006f8120000eff20000e018800000000001a
:10021000000020000000e000020032000001200089
:100220002002880014000700830007000000e0009f
:1002300003003a00003320000100200002003700d4
:100240000000200001002000810f7000010032003a
:1002500014000700000020000000e000020032004f
:100260000000020000000000d602020000000000b2
:100270000040da000000fe004440a900c000200059
:100280000000e0000300320000002000a001880010
:100290004440a800000006008a1f78008b1f7800e9
:1002a0000000060091018800800478000000eb0047
:1002b0001a003700e284440032a0b4009905ba0065
:1002c000e284440032a0b4009906ba00e2844400fb
:1002d00032a0b4000006eb00476fde00fd07b2005d
:1002e000636ce10003003a00ebff07000000eb0045
:1002f0000a003700606ce10004003a00005deb008a
:100300008b05e900fdff3e00040037006168e10055
:10031000010032000086eb000b00070019c7ba008d
:100320001905ba000e04e00003003a000a00e000dc
:10033000e0ff3a0000000600fe07b2009e018800c0
:100340008a047800f5ff3700395dba008b05e900b3
:100350000c003200295dba008b05e900080032006c
:100360000c00e00003003a00e284440032a0b40034
:10037000f5ff370019ddba008b05e900faff3a00f6
:100380008904e800e184440032a0b40000000600c3
:10039000809fbe003400f80000002000a00188000b
:1003a0000000fa00b01680004300de0061406000eb
:1003b0000004a200614060000080fb00610060005a
:1003c0004300dd00b11680000130a1000100700083
:1003d000b01688008460a9000080fa003400f9009b
:1003e0004f00be00004006003600f800809fbe00af
:1003f000829fbe00849fbe00869fbe003400f8002e
:1004000000002000a00188000000fa00250007007d
:100410000080fa003400f9004f03be004f02be0016
:100420004f01be004f00be003600f900004006003c
:0c0430000040da000000fe0000000500a3
:020000040000fa
:10043c00486f00006c610000204d0000756e0000dc
:08044c00646f00000a000000cb
:020000040000fa
:100454000000fa001622ef001822ef00b00020007e
:10046400f0108800b010800000f0a000b0108800e8
:10047400c010800000a0a000c01088008f00a80059
:100484000105800080ff2f00008060006000b30041
:10049400000588008700a9000080fa00000006001b
:1004a4000000fa008700a90000c8bf000001fb009b
:1004b400e01080008040780010802000000041009f
:1004c4000148780000c8bf000040e80000e8b70019
:1004d40000c8bf000000fb008000e900108020007d
:1004e4000080400010407800ea4f50000e003200b7
:1004f40000c8bf00f44f500010003a000b00370052
:1005040000c8bf008000fb00108020000080400075
:100514008040eb000148780000c8bf000040e800bc
:1005240000e8b700010037000000000000c8bf0069
:10053400f44f5000f2ff3a000068ef000080fa0028
:10054400000006000200fa00000f780004003700e3
:100554001e00780010407800070007001e0fe80016
:100564001e007800104078000004e000f8ff3a0014
:100574000080fa00000006000200fa00004f780034
:1005840000000000c1108000001020000080600006
:100594000000e000fbff32001e80fb00d01088004a
:1005a4000080fa00000006000000fa00d222ef00ea
:1005b400d622ef00d722a800c0c12100100888006d
:1005c4000021ef008460a9000002280020088800b0
:1005d4009fff07008c60a800a10480000000270092
:1005e40001007000a00488008460a90040d42100a8
:1005f400c10120000b000700d722a900d722a800c0
:10060400e0212800cfff070010802000cdff070065
:10061400d722a90040d42100c10120000100070015
:04062400f6ff3700a6
:020000040000fa
:10062800f03fb1000180b10006003500ee0309007b
:1006380000000000403fb1000180b100fbff3d0019
:100648001000b000203fb000020035000080090013
:08065800000000000000060094
:020000040000fa
:10066000000800001600000000000000000000006c
:020000040000fa
:0200000401f009
:04000000e0b9000063
:020000040000fa
:0200000401f009
:04000400ff7f00007a
:020000040000fa
:0200000401f009
:04000800ffff0000f6
:020000040000fa
:0200000401f009
:04001800ffff0000e6
:00000001FF
